:100000000C9430000C944D000C944D000C944D0059
:100010000C944D000C944D000C944D000C944D002C
:100020000C944D000C944D000C944D000C94A803BE
:100030000C944D000C944D000C944D000C944D000C
:100040000C944D000C944D000C944D000C944D00FC
:100050000C944D001F1C1F1E1F1E1F1F1E1F1E1F46
:1000600011241FBECFE5D4E0DEBFCDBF10E0A0E677
:10007000B0E0E8E2F8E002C005900D92A037B107C9
:10008000D9F720E0A0E7B0E001C01D92A137B20788
:10009000E1F70E94D6020C9412040C94000050E088
:1000A000623050F0E4E5F0E091E02491420F511D00
:1000B0009F5F31969613F9CF633028F0982F937095
:1000C00011F44F5F5F4F90E02DE631E0829FB00169
:1000D000839F700D929F700D11246B5F7F4F03966D
:1000E0009C013595279535952795CB01820F931F58
:1000F000480F591F9A01A3E9B4E20E94CE03281BBE
:10010000390B36952795820F931F9695879596956F
:1001100087959C01220F331F220F331F220F331F9D
:10012000B901681B790BCB01742F781B872F0895B9
:10013000CF92DF92EF92FF920F931F93CF93DF93B3
:10014000F82E162FD42FC22F8BE38E1508F480C003
:100150000C3308F07FC0283108F07EC08FEF840F89
:100160008F3108F07BC08FEF860F8C3008F078C09D
:1001700083E68F1508F476C0E62FF0E0ED5AFF4FC6
:10018000E491E41708F470C08F2D0E944F00C82E30
:100190000E94BC0280ED0E94D00280E00E94D0024A
:1001A0000F2EFAE0DF2EF02D8E2D6D2D0E94C20352
:1001B000982F990F890F880F8E0D0E94D002802FE3
:1001C0006D2D0E94C203982F990F890F880F800F01
:1001D0000E94D0028C2F6D2D0E94C203982F990F80
:1001E000890F880F8C0F0E94D0028C2D6D2D0E94DC
:1001F000C203982F990F890F880F8C0D0E94D0028F
:100200008D2F6D2D0E94C203982F990F890F880F93
:100210008D0F0E94D002812F6D2D0E94C203982F56
:10022000990F890F880F810F0E94D0028F2D6D2D9D
:100230000E94C203982F990F890F880F8F0D0E947B
:10024000D00280E00E94D0020E94C10281E00DC075
:1002500088E00BC088E009C088E007C088E005C0DE
:1002600088E003C088E001C080E0DF91CF911F915A
:100270000F91FF90EF90DF90CF9008958F929F9213
:10028000AF92BF92CF92DF92EF92FF920F931F93A4
:10029000CF93DF93EC016B015A0149010E94BC022C
:1002A00080ED0E94D00280E00E94D0020E94C10234
:1002B0000E94BC0281ED0E94D0020E94C4028F778E
:1002C000982F92959F70292F220F920F990F891BBB
:1002D000F70180830E94C402982F92959F70292F66
:1002E000220F920F990F891BF80180830E94C4028C
:1002F000982F92959F70292F220F920F990F891B8B
:10030000F40180830E94C4020E94C402982F929537
:100310009F70292F220F920F990F891BF50180835F
:100320000E94C402982F92959F70292F220F920F3E
:10033000990F891BF60180830E94CA02982F92951B
:100340009F70292F220F920F990F891B88830E947B
:10035000C102DF91CF911F910F91FF90EF90DF903D
:10036000CF90BF90AF909F908F900895D39AD49ADA
:10037000D59AD69A84FF02C0DB9A01C0DB9885FF2C
:1003800002C0DC9A01C0DC9886FF02C0DD9A01C081
:10039000DD98882314F4DE9A01C0DE98DA9866238B
:1003A00011F0D89A01C0D898D99800000000000038
:1003B0000000DA9A0000000000000000DA98000057
:1003C00000000000000080FF02C0DB9A01C0DB9843
:1003D00081FF02C0DC9A01C0DC9882FF02C0DD9A76
:1003E00001C0DD9883FF02C0DE9A01C0DE980000E4
:1003F000000000000000DA9A000000000000000089
:10040000DA980000000000000000D398D498D59836
:10041000D698D898D99ADE9A000000000000000013
:10042000DA9A000000000000000089B3DA980000AA
:10043000000000000000DA9A000000000000000048
:100440000000000000000000DA9886FDE5CF089566
:1004500085E49EE10197F1F700C00000D09AD19A9F
:10046000D29AD39AD49AD59AD69ADA98D898D99813
:10047000DB9ADC9ADD98DE980000000000000000A6
:10048000DA9A0000000000000000DA980000000086
:100490000000000083EC99E00197F1F700C0000034
:1004A0000000000000000000DA9A000000000000D8
:1004B0000000DA98000000000000000083EF91E0E7
:1004C0000197F1F700C000000000000000000000EC
:1004D000DA9A0000000000000000DA980000000036
:1004E0000000000083EF91E00197F1F700C00000E9
:1004F000DB980000000000000000DA9A0000000015
:1005000000000000DA9800000000000000009AE1FE
:100510009A95F1F700C060E088E20E94B60160E0C1
:1005200088E00E94B60160E081E00E94B60160E0D0
:1005300086E00E94B60108951F93CF93DF93EC01EC
:100540008881882359F010E01F5F61E00E94B601A6
:10055000FE01E10FF11D80818111F6CFDF91CF9176
:100560001F91089580E280B986B7846086BF0895A0
:1005700006B607FEFDCF089584EA86BF0E94B80242
:10058000089584E986BF089584EC86BF0E94B8026E
:1005900083B1089584E886BF0E94B80283B10895AC
:1005A00083B984E886BF0E94B8020895CF93DF9391
:1005B000CDB7DEB766970FB6F894DEBF0FBECDBFDE
:1005C00019821A821B821C821D821E8288E98AB9C6
:1005D0000E94280289E190E00E94B7030E94B202C3
:1005E00060E08CE00E94B60160E081E00E94B6010C
:1005F00060E080E80E94B60180E690E00E949C02E4
:10060000E12C00E02CE04EE061E08BE50E949800D8
:100610007894C12CD12CCE0106967C018E010B5F03
:100620001F4F9E012C5F3F4FAE014D5F5F4FBE01DC
:100630006E5F7F4F05970E943E018091700090E0B1
:100640008756904059F460E081E00E94B601C3945F
:1006500087E893E10197F1F700C0000091E0C91627
:10066000B9F1C91628F022E0C21609F460C060C0D2
:1006700060E085EC0E94B6018C814AE0BE01695FB2
:100680007F4F90E00E94DD030E949C0289E690E08B
:100690000E949C028D814AE0BE01695F7F4F90E01D
:1006A0000E94DD030E949C0289E690E00E949C0269
:1006B0008E814AE0BE01695F7F4F90E00E94DD03BA
:1006C0000E949C028091700090E00E949C0230C0C9
:1006D00060E085EC0E94B6018BE690E00E949C02EF
:1006E00089814AE0BE01695F7F4F90E00E94DD038F
:1006F0000E949C028EE690E00E949C028A814AE061
:10070000BE01695F7F4F90E00E94DD030E949C0262
:100710008EE690E00E949C028B814AE0BE01695FF8
:100720007F4F90E00E94DD030E949C0201C0C12C1B
:1007300084E1D81205C0809170000E94BE03D12CC4
:10074000D39483ED90E30197F1F700C0000063CFED
:100750001F920F920FB60F9211248F938CB180933A
:1007600070008F910F900FBE0F901F90189590BD45
:1007700089B988E18AB98EE880BD08955D9BFECF76
:100780008CB90895991B79E004C0991F961708F059
:10079000961B881F7A95C9F780950895A29FB0018E
:1007A000B39FC001A39F700D811D1124911DB29FA5
:1007B000700D811D1124911D0895BB274A3031F41D
:1007C000992322F4BDE2909581959F4F0C94E90303
:1007D000BB27FB015527AA27880F991FAA1FA4171B
:1007E00010F0A41B83955051B9F7A05DAA3308F00F
:1007F000A95DA193009779F7B111B1931192CB0143
:100800000C940204DC01FC01672F71917723E1F75E
:10081000329704C07C916D9370836291AE17BF07CD
:08082000C8F30895F894FFCF1E
:1008280048656C6C6F21004E003A003230002D0094
:00000001FF
